:1000000012C02CC02BC0E9C029C028C027C026C000
:1000100025C024C023C0B9C021C020C01FC01EC03D
:100020001DC01CC01BC011241FBECFE5D4E0DEBF25
:10003000CDBF10E0A0E6B0E0E8E5F3E002C0059037
:100040000D92A236B107D9F720E0A2E6B0E001C0D8
:100050001D92AC36B207E1F747D07CC1D1CF90BD3D
:1000600089B988E18AB986E880BD579A08955D9B71
:10007000FECF8CB90895CF93DF93EC01899188234B
:1000800011F0F5DFFBCFDF91CF910895CF93DF9390
:10009000FC018491EF012196882319F0E8DFFE012D
:1000A000F8CFDF91CF910895CF93DF93CDB7DEB72F
:1000B00061970FB6F894DEBF0FBECDBF242F30E09E
:1000C000AE014F5F5F4FFDD0CE010196D4DF619648
:1000D0000FB6F894DEBF0FBECDBFDF91CF9108956C
:1000E0005F9BFECF8CB1089587E690E0B8DF85B5C1
:1000F000886085BD85B5816085BD89B7806889BF09
:1001000088EC83BD789484B38F6384BB85B38F639D
:1001100085BB81B3806F81BB82E390916700973587
:10012000A9F050F49534C9F09335F1F09134A9F762
:10013000809366009698F1CF9A35D1F09A36E1F027
:10014000983559F780936A00959AE7CF80936800B5
:1001500080936B009798949AE0CF80936800809387
:100160006B00979A9498D9CF80936600969AD5CFD2
:1001700080936A009598D1CF1092680010926B001E
:100180001092660010926A00C8CF1F920F920FB6AD
:100190000F9211242F933F934F935F936F937F930D
:1001A0008F939F93AF93BF93EF93FF9399DF8093C8
:1001B00067008CB180936700FF91EF91BF91AF9181
:1001C0009F918F917F916F915F914F913F912F916F
:1001D0000F900FBE0F901F9018951F920F920FB6A1
:1001E0000F9211242F933F938F939F9380916400DC
:1001F00090E020916200309163002817390710F0D9
:10020000A89A01C0A8988091650090E020916200B2
:10021000309163002817390710F0A99A01C0A998F6
:1002200080916A0090E0209162003091630028176D
:10023000390710F0AA9A01C0AA988091660090E050
:1002400020916200309163002817390710F0AB9AB3
:1002500001C0AB9880916B0090E0209162003091DA
:1002600063002817390710F0AC9A01C0AC98809150
:10027000680090E0209162003091630028173907F0
:1002800010F0AD9A01C0AD9880916200909163002A
:1002900001969093630080936200209160003091FA
:1002A00061002817390720F4109263001092620051
:1002B0009F918F913F912F910F900FBE0F901F90A4
:1002C00018952532310518F4223008F004C0FA01DF
:1002D0001082CA010895BB272A3051F4992342F4B1
:1002E000BDE290958095709561957F4F8F4F9F4FA0
:1002F00001C0BB27FA01A62F621771058105910580
:10030000330B30FB66F0AA27660F771F881F991FF3
:10031000AA1FA21710F0A21B63953850A9F7A05D81
:10032000AA3308F0A95DA19336F7B111B1931082F9
:10033000CA0100C0DC01FC01672F71917723E1F74E
:10034000329704C07C916D9370836291AE17BF07A2
:08035000C8F30895F894FFCFF3
:020358002C0176
:00000001FF
