:100000002CC046C045C0F0C043C042C041C040C043
:100010003FC03EC03DC0A0C0C0C03AC039C038C01B
:1000200037C036C035C0BAC19CC19BC19AC1ADC1F1
:1000300098C1D4C1D0C195C1C9C193C1D4C191C126
:1000400090C18FC1D4C18DC18CC1AEC18AC189C1DB
:1000500088C192C1B5C185C1ADC111241FBECFE514
:10006000D4E0DEBFCDBF10E0A0E6B0E0ECEFF3E0FF
:1000700002C005900D92A83AB107D9F720E0A8EA8E
:10008000B0E001C01D92A43DB207E1F73FD1B4C179
:10009000B7CF90BD89B988E18AB986E880BD8AB1B9
:1000A00088698AB908959091BC008091BD00981725
:1000B00069F08091BD008F5F8F708093BD00E091EB
:1000C000BD00F0E0E254FF4F8081089580E0089584
:1000D0009091AA009F5F9F702091AB009217E1F36F
:1000E000E92FF0E0E455FF4F80839093AA00559AE2
:1000F00008955D9BFECF8CB90895EF92FF920F9308
:100100001F93CF93DF938C017B01C0E0D0E0CBDF66
:100110008D3061F08F3128F0F801EC0FFD1F8083E6
:100120002196EC16FD0614F08111F1CFC00FD11FFE
:100130001882C801DF91CF911F910F91FF90EF902E
:100140000895CF93DF93EC018991882311F0C0DFEC
:10015000FBCFDF91CF9108951F920F920FB60F92B0
:1001600011248F939F93EF93FF938CB1E091BC0088
:10017000EF5FEF709091BD00E91731F0E093BC00A4
:10018000F0E0E254FF4F8083FF91EF919F918F91B8
:100190000F900FBE0F901F9018951F920F920FB6E1
:1001A0000F9211248F939F93EF93FF939091AA0046
:1001B0008091AB00981771F08091AB008F5F8F70CA
:1001C0008093AB00E091AB00F0E0E455FF4F8081FD
:1001D0008CB901C05598FF91EF919F918F910F902D
:1001E0000FBE0F901F9018951F920F920FB60F928F
:1001F00011242F933F938F939F938091CE0090E093
:100200002091A8003091A9002817390710F0A89A6A
:1002100001C0A8988091CF0090E02091A800309173
:10022000A9002817390710F0A99A01C0A998809150
:10023000D20090E02091A8003091A900281739073A
:1002400010F0AA9A01C0AA988091D00090E0209165
:10025000A8003091A9002817390710F0AB9A01C007
:10026000AB988091D30090E02091A8003091A90034
:100270002817390710F0AC9A01C0AC988091D100D2
:1002800090E02091A8003091A9002817390710F0BC
:10029000AD9A01C0AD988091A8009091A9000196F7
:1002A0009093A9008093A800209160003091610094
:1002B0002817390720F41092A9001092A8009F91E6
:1002C0008F913F912F910F900FBE0F901F90189517
:1002D0008AB59BB50A969BBD8ABD8AB59BB58E3003
:1002E000914020F08EE091E09BBD8ABD08958AB5D3
:1002F0009BB50A979BBD8ABD8AB59BB5833891058E
:1003000020F482E890E09BBD8ABD089587E690E0E6
:10031000C0DE85B5886085BD85B5826085BD89B73D
:10032000806889BF82E383BD84B38F6384BB86E921
:1003300090E09BBD8ABDB99A8FB580688FBD8FB59F
:1003400082608FBD8EB588618EBD8EB583608EBD97
:1003500080E197E297BD86BD81B3806F81BB7894C1
:10036000C2E3A1DE90E0FC01E156F109EA31F105BA
:10037000C0F7ED5EFF4F0994C093D100C093D30046
:100380009798949A82E690E035C0C093D100C093CC
:10039000D300979A949889E690E02CC0C093D0003F
:1003A000969882E790E026C0C093D000969A89E79D
:1003B00090E020C0C093D200959882E890E01AC0E7
:1003C000C093D200959A89E890E014C01092D100B1
:1003D0001092D30005C01092D20002C01092D0003B
:1003E00081E990E007C074DF88E990E003C07FDF17
:0C03F0008FE990E0A6DEB5CFF894FFCFB7
:1003FC002C0155505F310D0A00444F574E5F310DA3
:10040C000A0055505F320D0A00444F574E5F320DB3
:10041C000A004C4546540D0A0052494748540D0AEF
:10042C000053544F500D0A004F50454E0D0A0043D7
:08043C004C4F53450D0A00006E
:00000001FF
